:020000040000FA
:100000000C94B4000C94BF150C9498150C94DC005F
:100010000C94DC000C94DC000C94DC000C94DC00F0
:100020000C94DC000C94DC000C94DC000C94E615C1
:100030000C94DC000C94DC000C94DC000C94DC00D0
:100040000C944E150C94DC000C941C150C94F614B6
:100050000C94DC000C94DC000C94DC000C94DC00B0
:100060000C94DC000C94DC0007634236B79BD8A7E5
:100070001A39685618AEBAAB558C1D3CB7CC5763CD
:10008000BD6DEDFD753EF6177231BF000000803F7B
:1000900008000000BE922449123EABAAAA2ABECD97
:1000A000CCCC4C3E00000080BEABAAAAAA3E000009
:1000B0000000BF000000803F000000000008417801
:1000C000D3BB4387D1133D190E3CC3BD4282AD2B38
:1000D0003E68EC8276BED98FE1A93E4C80EFFFBE30
:1000E00001C4FF7F3F00000000000000000023006B
:1000F0002600290072740492740448940478C40C95
:1001000072B40472756E2D6272696467650A000AC2
:10011000000A0000000000240027002A0000000060
:1001200000250028002B0004040404040404040235
:100130000202020202030303030303010204081084
:100140002040800102040810200102040810200051
:100150000000080002010000030407000000000086
:10016000000000003E17281711241FBECFEFD8E073
:10017000DEBFCDBF12E0A0E0B1E0E6EEF8E402C0E1
:1001800005900D92AE3AB107D9F725E0AEEAB2E09C
:1001900001C01D92A634B207E1F710E0C3EBD0E036
:1001A00004C02197FE010E945722C23BD107C9F724
:1001B0000E9433180C9466240C940000FC01A08962
:1001C000B18982E08C93A485B5851C92A685B785FC
:1001D00080E18C93108EA489B58986E08C93A289E6
:1001E000B3898C9180618C93A289B3898C9188604A
:1001F0008C93A289B3898C9180688C930288F3894F
:10020000E02D80818F7D808308958230B8F4E82FBF
:10021000F0E0EE0FFF1FE050FF4F718360838130ED
:1002200039F080916900836080936900E89A0895AD
:10023000809169008C6080936900E99A0895CF935A
:10024000DF93EC01FA013296E60FF71FDC019D0106
:100250002C1B3D0BCF01861B970B4D91442311F0B6
:100260004193F5CFAC01421B530B640F751FFB018B
:100270003297308361507109FB012083DF91CF9168
:1002800008958091DC039091DD03009711F480E0E4
:100290002FC0DC01ED91FC910688F789E02D0995CE
:1002A0002091FF033091000481111FC0232B79F7A7
:1002B0008DEF9FEF909300048093FF038091DC0308
:1002C0009091DD03DC01ED91FC910680F781E02D3A
:1002D00009958091DC039091DD03DC01ED91FC91A7
:1002E0000488F589E02D0995D2CF81E0232B79F69A
:1002F0000895DC01ED91FC910190F081E02D0994CD
:10030000EF92FF920F931F93CF93DF938C017B01AA
:10031000D0E0C0E0F701EC0FFD1F6491662361F0AF
:10032000D801ED91FC910190F081E02DC801099573
:10033000892B11F02196EECFCE01DF91CF911F9145
:100340000F91FF90EF900895AF92BF92CF92DF92FE
:10035000EF92FF920F931F93CF93DF936C017B017A
:100360008B01040F151FEB015E01AE18BF08C0170B
:10037000D10759F06991D601ED91FC910190F0817E
:10038000E02DC6010995892B79F7C501DF91CF9141
:100390001F910F91FF90EF90DF90CF90BF90AF90A3
:1003A0000895FC01538D448D252F30E0842F90E07B
:1003B000821B930B541710F0CF9608950197089560
:1003C000FC01918D828D981761F0A28DAE0FBF2F29
:1003D000B11D5D968C91928D9F5F9F73928F90E07F
:1003E00008958FEF9FEF0895FC01918D828D9817EE
:1003F00031F0828DE80FF11D858D90E008958FEF2B
:100400009FEF0895FC01918D228D892F90E0805CF3
:100410009F4F821B91098F739927089588EC92E072
:100420000E94020221E0892B09F420E0822F089526
:1004300080E090E0892B29F00E940E0281110C943B
:1004400000000895FC01A48DA80FB92FB11DA35A77
:10045000BF4F2C91848D90E001968F739927848FE4
:10046000A689B7892C93A089B1898C918370806407
:100470008C93938D848D981306C00288F389E02DA8
:1004800080818F7D80830895EF92FF920F931F9359
:10049000CF93DF93EC0181E0888F9B8D8C8D981337
:1004A0001AC0E889F989808185FF15C09FB7F89443
:1004B000EE89FF896083E889F9898081837080648F
:1004C00080839FBF81E090E0DF91CF911F910F91DA
:1004D000FF90EF900895F62E0B8D10E00F5F1F4FE9
:1004E0000F731127E02E8C8D8E110CC00FB607FCF8
:1004F000FACFE889F989808185FFF5CFCE010E9486
:100500002202F1CFEB8DEC0FFD2FF11DE35AFF4FCF
:10051000F0829FB7F8940B8FEA89FB898081806213
:10052000CFCFCF93DF93EC01888D8823B9F0AA89D0
:10053000BB89E889F9898C9185FD03C0808186FD9E
:100540000DC00FB607FCF7CF8C9185FFF2CF8081ED
:1005500085FFEDCFCE010E942202E9CFDF91CF913E
:100560000895833081F028F4813099F08230A9F029
:1005700008958730A9F08830C9F08430B1F48091B3
:1005800080008F7D03C0809180008F7780938000F2
:10059000089584B58F7784BD089584B58F7DFBCF92
:1005A0008091B0008F778093B00008958091B00063
:1005B0008F7DF9CF1F93CF93DF93282F30E0F90180
:1005C000E15BFE4F8491F901E55CFE4FD491F901A6
:1005D000E95DFE4FC491CC23A9F0162F81110E9432
:1005E000B102EC2FF0E0EE0FFF1FE35EFE4FA5918E
:1005F000B4918FB7F894EC91111108C0D095DE2317
:10060000DC938FBFDF91CF911F910895DE2BF8CF40
:10061000CF93DF9390E0FC01E55CFE4F2491895D70
:100620009E4FFC0184918823D1F090E0880F991FA0
:10063000FC01ED5EFE4FA591B491FC01E35EFE4F1F
:10064000C591D49161110EC09FB7F8948C91E22F9F
:10065000E0958E238C932881E223E8839FBFDF916E
:10066000CF9108958FB7F894EC91E22BEC938FBF64
:10067000F6CF3FB7F8948091BE029091BF02A0914F
:10068000C002B091C10226B5A89B05C02F3F19F04A
:100690000196A11DB11D3FBFBA2FA92F982F882702
:1006A000BC01CD01620F711D811D911D42E0660FDD
:1006B000771F881F991F4A95D1F708958F929F92AF
:1006C000AF92BF92CF92DF92EF92FF926B017C01CB
:1006D0000E9439034B015C01C114D104E104F1040F
:1006E000B9F00E943903681979098A099B09683EA3
:1006F00073408105910580F321E0C21AD108E10819
:10070000F10888EE880E83E0981EA11CB11CE4CF8E
:10071000FF90EF90DF90CF90BF90AF909F908F9021
:1007200008952FB7F8946091BA027091BB0280913E
:10073000BC029091BD022FBF0895EF92FF920F93DC
:100740001F93CF93DF9300D000D0CDB7DEB7FA016F
:1007500020E08E010F5F1F4F9E2F9F77EE0FEF2F30
:10076000EE1FFF0BF195309709F09068D801A20FAA
:10077000B11D9C932F5F309779F730E0FB01E21BAE
:10078000F30B8483FB01E21BF30B3596D801CD01FB
:10079000801B910B821793071CF48D918193F7CFE7
:1007A0002F5F3F4F8091DC039091DD038901040F9F
:1007B000151F621B730B6B5F7F4FDC01ED91FC918A
:1007C0000280F381E02DA80109957C010E9491032C
:1007D0006093E8037093E9038093EA039093EB033B
:1007E00081E00E151F0509F080E00F900F900F902B
:1007F0000F90DF91CF911F910F91FF90EF9008958F
:100800008F929F92AF92BF92CF92DF92EF92FF9220
:10081000CF93DF93EC010E9491034B015C01809127
:10082000DC039091DD03DC01ED91FC910084F18506
:10083000E02D0995892BB9F40E9491036B017C018D
:10084000C818D908EA08FB082091E4033091E503B1
:10085000A8EEB3E00E94881FC616D706E806F90680
:10086000F0F280E00DC08091DC039091DD03DC01AB
:10087000ED91FC910284F385E02D0995888381E058
:10088000DF91CF91FF90EF90DF90CF90BF90AF902E
:100890009F908F9008952F923F924F925F926F9208
:1008A0007F928F929F92AF92BF92CF92DF92EF9200
:1008B000FF920F931F93CF93DF93CDB7DEB72A97A5
:1008C0000FB6F894DEBF0FBECDBF1C018091DE03D2
:1008D0009091DF030E94000481111CC060E070E071
:1008E000CB012A960FB6F894DEBF0FBECDBFDF91C5
:1008F000CF911F910F91FF90EF90DF90CF90BF901D
:10090000AF909F908F907F906F905F904F903F90AF
:100910002F900895E091DE03F091DF03D0801982DB
:10092000EE24E394F12C812C912C5401412C512C78
:1009300032014394CE0101960E940004882371F293
:1009400087010F5F1F4F8981E091DE03F091DF0384
:10095000EE0DFF1D8083E981AE2FAF77B0E0A301DC
:1009600092010E941C1F860E971EA81EB91E37E01A
:10097000440C551C661C771C3A95D1F7E7FD3FC027
:10098000BD2DB07FBE838FEF800FF1018083B03328
:1009900009F04CC08091DE039091DF03800F911F1E
:1009A0000E940004882309F499CF2091DE0330913E
:1009B000DF03C7010296820F931F0E940004882361
:1009C00009F48CCF0E5F1F4FE091DE03F091DF033F
:1009D000D1018C91DF01A80FB11D11968C91119757
:1009E00090E0982F882712962C91820F911D2081DC
:1009F00021FD0296F2E0E0E030E020E01DC0780149
:100A00000530110509F096CF8FEF9FEF909300040A
:100A10008093FF038091DC039091DD03DC01ED9175
:100A2000FC910488F589E02D099558CFF0E0E0E0CD
:100A300030E020E090E080E070E060E0CF2EDE2E3D
:100A4000E32EF22E28013B014C185D086E087F084A
:100A50004A825B826C827D822C01712C612C4F82D8
:100A6000588669867A864A805B806C807D804C0CD3
:100A70005D1C6E1C7F1CC814D904EA04FB0408F03A
:100A800046C0CE0101960E940004882309F426CFB7
:100A90008091FD039091FE03009711F12E81203388
:100AA000F9F4D1012C914EEF5FEF6FEF7FEF421B16
:100AB000510961097109440E551E661E771E2F816A
:100AC000388549855A85241535054605570540F46E
:100AD000DC01ED91FC910190F081E02D6981099597
:100AE0008091E0039091E1030817190750F4898180
:100AF000E091DE03F091DF03E00FF11F80830F5FD1
:100B00001F4FBFEFCB1ADB0AEB0AFB0AACCF809179
:100B1000FD039091FE03892B69F48091E00390918D
:100B2000E103B0E0A0E084159505A605B70510F433
:100B300010E000E0B80190E080E0D3CE0895089581
:100B4000FB012785FC012787FB012685FC01268701
:100B50000895FC0187850895CF93DF93EC018D8183
:100B60009E81DC01ED91FC910084F185E02D0995D9
:100B70001816190654F48D819E81DC01ED91FC91CB
:100B80000284F385E02D0995EACFDF91CF91089596
:100B90008F929F92AF92BF92CF92DF92EF92FF928D
:100BA000CF93DF93EC016B010E9491034B015C0139
:100BB000F12CE12C8D819E81DC01ED91FC91028470
:100BC000F385E02D099597FF0DC00E9491036819E8
:100BD00079098A099B096C157D058E059F0550F3DF
:100BE0008FEF9FEFDF91CF91FF90EF90DF90CF904D
:100BF000BF90AF909F908F900895FC012381348126
:100C00002627022E2295207F2025032E322F229583
:100C10002F700226269532272327220F220F220F1C
:100C200020253483238308952F923F924F925F9221
:100C30006F927F928F929F92AF92BF92CF92DF92EC
:100C4000EF92FF920F931F93CF93DF93CDB7DEB751
:100C50002A970FB6F894DEBF0FBECDBF9A8789875B
:100C60005B01290137011A01200E311E3A821982D7
:100C700088248A94982C9A01260F371F3E832D834F
:100C8000C801840D951D98878F83A985BA8518960C
:100C90008C91B981B81708F040C1E985FA85948232
:100CA000838285819681DC01ED91FC910190F08138
:100CB000E02D6FEF09956FEF89859A850E94FD05FC
:100CC000E985FA8585819681DC01ED91FC910190A1
:100CD000F081E02DA985BA856C910995E985FA85A1
:100CE0006081CF010E94FD05A985BA8515968D9179
:100CF0009C91DC01ED91FC910190F081E02D6A81E5
:100D000009956A8189859A850E94FD05E985FA859C
:100D100085819681DC01ED91FC910190F081E02DBF
:100D2000622D0995622D89859A850E94FD058501B0
:100D3000E985FA8585819681DC01ED91FC91019030
:100D4000F081E02D2D813E8120173107E1F48201F1
:100D5000E985FA8585819681DC01ED91FC91019010
:100D6000F081E02D2F81388520173107C1F0D8019F
:100D70006D918D010995F8013197608189859A857A
:100D80000E94FD05E5CFD8016D918D010995F8010F
:100D90003197608189859A850E94FD05C9CFA98513
:100DA000BA8514966C910995E985FA8585819681B5
:100DB000DC01ED91FC910190F081E02DA985BA85CF
:100DC00013966C91099568EC70E089859A850E946C
:100DD000C8058F3F910509F092C0E985FA85948294
:100DE00083826FEFCF010E94FD0565E070E0898589
:100DF0009A850E94C805A985BA856C91681719065D
:100E000009F07DC0CD010E94FD056AE070E0898592
:100E10009A850E94C8057C0197FD71C0682F89855D
:100E20009A850E94FD056AE070E089859A850E9496
:100E3000C8058C0197FD63C0682F89859A850E943B
:100E4000FD05EC821B82EB81FC810E0F1F1FF12C34
:100E5000E12C65E070E089859A850E151F05A1F0EB
:100E6000EC14FD0489F00E94C80597FD09C0F30148
:100E7000EE0DFF1D8083682F89859A850E94FD05F0
:100E8000FFEFEF1AFF0AE5CF0E94C8057C0197FD2E
:100E900036C065E070E089859A850E94C80597FD97
:100EA0002EC0FE2CEE248E0D9F1DA985BA851396AB
:100EB0002D913C9114978217930709F58C918F5FC0
:100EC0008C93C801C016D10608F4C6012A960FB645
:100ED000F894DEBF0FBECDBFDF91CF911F910F9170
:100EE000FF90EF90DF90CF90BF90AF909F908F904A
:100EF0007F906F905F904F903F902F900895B981B1
:100F0000BF5FB98364E670E080E090E00E945E031A
:100F100089859A850E94AC05B8CE8FEF9FEFD6CF1A
:100F20008F929F92AF92BF92CF92DF92EF92FF92F9
:100F30000F931F93CF93DF931F92CDB7DEB75C0162
:100F40009B014A01DC0152968C91811128C08B01D2
:100F50007B01E40EF51E0E151F0591F1D501559686
:100F60002D913C9156975396EC91539781E08E0FBB
:100F700053968C93D8018D918D01E20FF32FF11DC3
:100F80008083F501938984899813E5CF0190F081DE
:100F9000E02D0680F781E02DC5010995DCCF80E5C5
:100FA0008983D12CC12CF12CE12C8A0141E050E045
:100FB000BE016F5F7F4FF501848595850E94140601
:100FC000C4010F90DF91CF911F910F91FF90EF908F
:100FD000DF90CF90BF90AF909F908F900895AF9289
:100FE000BF92CF92DF92EF92FF920F931F93CF9316
:100FF000DF9300D0CDB7DEB7FC019B015A01878596
:10100000882301F18CE6898386858A83D12CC12CC3
:10101000F12CE12C8A0142E050E0BE016F5F7F4F6E
:10102000848595850E941406C5010F900F90DF916D
:10103000CF911F910F91FF90EF90DF90CF90BF90D5
:10104000AF900895B12CA12CEFCFCF92DF92EF9209
:10105000FF920F931F936801790110E000E030E0E8
:1010600020E00E9414061F910F91FF90EF90DF90F7
:10107000CF900895EF92FF920F931F93CF93DF933A
:1010800000D0CDB7DEB7FC012685211115C07C014B
:10109000178680E7898380E28A832089318900E28C
:1010A00010E042E050E0BE016F5F7F4F8485958580
:1010B0000E942508F70186870F900F90DF91CF914E
:1010C0001F910F91FF90EF900895CF93DF93EC0164
:1010D0000E943A088E85882359F0EF85888999897E
:1010E000E80FF92FF11D808190E0DF91CF910895F5
:1010F0008FEF9FEFFACFCF93DF93EC010E943A0876
:101100008E85882381F081508E8788899989EF8523
:1011100021E02E0F2F87E80FF92FF11D808190E03D
:10112000DF91CF9108958FEF9FEFFACFCF93DF93A9
:10113000EC010E943A088E8590E0DF91CF910895EE
:10114000EF92FF920F931F93CF93DF9300D01F92E4
:10115000CDB7DEB7DC011F962C911F97222301F13A
:101160007C01ED91FC910084F185E02D0995892B9E
:1011700011F58CE48983F70186858A8301E010E00C
:101180009E012D5F3F4F42E050E0BE016F5F7F4FF9
:10119000848595850E94250881E09B81913009F026
:1011A00080E00F900F900F90DF91CF911F910F91E2
:1011B000FF90EF90089581E0F4CFEF92FF920F93AC
:1011C0001F93CF93DF9300D01F92CDB7DEB7FC0102
:1011D0002089211118C07C01118A8BE4898380E465
:1011E0008B8386858A839F012E5E3F4F00E410E04B
:1011F00043E050E0BE016F5F7F4F848595850E947C
:101200002508F701808B0F900F900F90DF91CF9101
:101210001F910F91FF90EF900895CF93DF93EC0112
:101220000E94DD088889882341F08989C80FD11D73
:101230008A8990E0DF91CF9108958FEF9FEFFACFE9
:10124000CF92DF92EF92FF920F931F93CF93DF9392
:10125000EC016A017B0110E000E08889811106C081
:10126000CE010E94DD088889882399F0E98981E010
:101270008E0F898B0F5F1F4FEC0FFD2FF11D8289A1
:10128000F70181937F0188898150888B0C151D059A
:1012900020F3C801DF91CF911F910F91FF90EF9044
:1012A000DF90CF900895CF93DF93EC010E94DD088B
:1012B0008889882369F08150888B898991E0980F0B
:1012C000998BC80FD11D8A8990E0DF91CF91089545
:1012D0008FEF9FEFFACFCF93DF93EC010E94DD08F1
:1012E000888990E0DF91CF9108950F931F9310E0CC
:1012F00000E030E020E00E9425081F910F91089542
:10130000CF93DF93FC01228921110BC0EC014389AB
:1013100050E065897689848595850E94750981E00C
:101320008B8BDF91CF910895CF93DF9300D0CDB712
:10133000DEB7DC0152968C9152978823A1F080E5AC
:1013400089836A8342E050E0BE016F5F7F4F1C9645
:101350008D919C910E94750981E090E00F900F9013
:10136000DF91CF91089555968D919C915697539604
:10137000EC91539721E02E0F53962C935397E80F3F
:10138000F92FF11D608353969C91539754968C913D
:1013900054979813E1CFED91FC9111970680F78156
:1013A000E02DCD010995D8CFCF93DF9300D01F92C8
:1013B000CDB7DEB7FC01278590E080E0222381F0E5
:1013C0008CE6898386858A836B8343E050E0BE0187
:1013D0006F5F7F4F848595850E94750981E090E05D
:1013E0000F900F900F90DF91CF9108950F931F935F
:1013F000CF93DF9300D0CDB7DEB78C01FC0187859A
:10140000882369F08AE6898386858A8342E050E0F2
:10141000BE016F5F7F4F848595850E947509F80135
:101420001786108A118A0F900F90DF91CF911F912C
:101430000F910895CF92DF92EF92FF920F931F9337
:10144000CF93DF93CDB7DEB72E970FB6F894DEBFFC
:101450000FBECDBFDC0117962C9117972111B1C09B
:101460007C0181E0FD018783C7010E94AC0568EE25
:1014700073E080E090E00E945E03D70115968D91A5
:101480009C91DC01ED91FC910084F185E02D0995A2
:10149000181619064CF3DD24D39482E3C82E85E098
:1014A000EEE0F1E0DE01169601900D928A95E1F7EB
:1014B000F701D08645E050E0BE016A5F7F4FC7016B
:1014C0000E94750963E0D70115968D919C910E9449
:1014D00079016AEF70E080E090E00E945E0361E1D4
:1014E00071E0F701858196810E9480016AEF70E0CA
:1014F00080E090E00E945E036FE071E0D7011596F6
:101500008D919C910E94800164EF71E080E090E0F9
:101510000E945E0363E071E0F701858196810E947D
:10152000800164EF71E080E090E00E945E03C701FB
:101530000E94AC0585E0E3E1F1E0DE011196019047
:101540000D928A95E1F7D7011896CC9204E010E04D
:101550009E01255F3F4F45E050E0BE016F5F7F4F2A
:10156000C7010E9425088F3F980739F468EE73E0A1
:1015700080E090E00E945E0392CF2B852111FFCF87
:10158000049771F52C852053330B44E6429FC0012C
:10159000439F900D11242D85EAE02E9F800D911D13
:1015A0001124805E91402E852053330B820F931FB0
:1015B000D70112969C938E93119782E3D7011896C8
:1015C0008C932E960FB6F894DEBF0FBECDBFDF9181
:1015D000CF911F910F91FF90EF90DF90CF900895E2
:1015E00084E690E0F70192838183E7CFEF92FF9248
:1015F0000F931F93CF93DF93EC018B017A010E942D
:101600009103688B798B8A8B9B8B8C819D81DC010C
:10161000ED91FC910280F381E02DA701B801DF91EB
:10162000CF911F910F91FF90EF9009941F93CF934B
:10163000DF93EC01162F0E949103688B798B8A8BC4
:101640009B8B8C819D81DC01ED91FC910190F0815F
:10165000E02D612FDF91CF911F910994089590E0C3
:1016600080E0089508958BEF089581E00895CF9369
:10167000DF93FC01228133812230310569F0EC01D6
:10168000678D858D0E94DA0260E08C8D0E94DA02FF
:1016900082E090E09B838A83DF91CF91089561E09F
:1016A000FC01838D0C94DA0260E0FC01838D0C94C4
:1016B000DA02FF920F931F93CF93DF93EC01162F63
:1016C000F42E0FB7F894898D9A8DDC01ED91FC9181
:1016D0000088F189E02D0995E881F98104ACF5AD28
:1016E000E02DCE010995898D9A8D612F6068DC010E
:1016F000ED91FC910190F081E02D0995182F898DD5
:101700009A8DDC01ED91FC910190F081E02D6F2D1F
:101710000995E881F98106ACF7ADE02DCE01099578
:10172000898D9A8DDC01ED91FC910288F389E02D81
:1017300009950FBF812FDF91CF911F910F91FF90DE
:101740000895CF93DF93EC0144E06DE40E94590BC0
:101750004BE869E0CE01DF91CF910C94590BCF9308
:10176000DF93EC018A819B810597C9F0E881F981BB
:10177000E05CFF4F0190F081E02D65E070E0CE016C
:10178000099547E061E0CE010E94590B40E860E412
:10179000CE010E94590B85E090E09B838A838A8169
:1017A0009B810597E1F38E89DF91CF910895CF93C7
:1017B000DF93FC012281338121303105A9F0EC0156
:1017C0000190F081E02DE05CFF4F0190F081E02D71
:1017D00061E070E0099540E061E0CE010E94590BA4
:1017E00081E090E09B838A8381E0DF91CF9108952F
:1017F000CF93DF93FC012281338122303105A9F0A0
:10180000EC010190F081E02DE05CFF4F0190F08150
:10181000E02D62E070E0099541E061E0CE010E94B8
:10182000590B82E090E09B838A83DF91CF910895EA
:101830008F929F92AF92BF92CF92DF92EF92FF92E0
:101840001F93CF93DF93EC014A015B0120E034E268
:1018500044E759E4CB01B4010E943F1E20E034E28A
:1018600044E752E40E94971F0E9409206B017C010B
:10187000A7016627772766E0CE010E94590B7727DC
:101880006F2D5E2D4D2D67E0CE010E94590B4C2D22
:1018900068E0CE010E94590BC05EDE4F11E020E0EF
:1018A00030EC42E454E4C501B4010E94382087FDC5
:1018B00010E0188381E0DF91CF911F91FF90EF90AE
:1018C000DF90CF90BF90AF909F908F900895BF9280
:1018D000CF92DF92EF92FF920F931F93CF93DF93FC
:1018E0004C3F60F000E0802FDF91CF911F910F916E
:1018F000FF90EF90DF90CF90BF900895142F6B0171
:10190000EC01E881F9810088F189E02D0995CE018B
:101910000E94F80BE881F9810688F789E02DCE0155
:101920000995082F8823F1F240E06DE0CE010E9476
:10193000590B4A8560E0CE010E94590B4B8560E04F
:10194000CE010E94590B4C8560E0CE010E94590BDC
:101950004D8560E0CE010E94590BBFB6F894898D89
:101960009A8DDC01ED91FC910088F189E02D0995BB
:10197000E881F98104ACF5ADE02DCE010995898DA2
:101980009A8DDC01ED91FC910190F081E02D60E8F1
:1019900009957601D12EDA94BFEFDB1669F0898DB7
:1019A0009A8DF70161917F01DC01ED91FC9101902D
:1019B000F081E02D0995EFCFE881F98106ACF7AD14
:1019C000E02DCE010995898D9A8DDC01ED91FC9178
:1019D0000288F389E02D0995BFBE44E0410F62E221
:1019E000CE010E94590B8A819B81039709F47BCF1A
:1019F000E881F981E05CFF4F0190F081E02D63E028
:101A000070E0CE01099543E061E0CE010E94590BE0
:101A100040E460E4CE010E94590B83E090E09B8398
:101A20008A8361CFCF93DF93FC01228133812330FE
:101A3000310529F1EC01828193810497D1F0019065
:101A4000F081E02DE05CFF4F0190F081E02D64E03B
:101A500070E0CE01099545E061E0CE010E94590B8E
:101A600040E060E4CE010E94590B84E090E09B834B
:101A70008A83C15EDE4F8881DF91CF91089580E037
:101A8000FBCF0F931F93CF93DF93EC01162F0FB76C
:101A9000F894898D9A8DDC01ED91FC910088F18993
:101AA000E02D0995E881F98104ACF5ADE02DCE017A
:101AB0000995898D9A8DDC01ED91FC910190F08161
:101AC000E02D612F0995898D9A8DDC01ED91FC91B6
:101AD0000190F081E02D60E00995182FE881F981EF
:101AE00006ACF7ADE02DCE010995898D9A8DDC010C
:101AF000ED91FC910288F389E02D09950FBF812FAC
:101B0000DF91CF911F910F910895DF92EF92FF9295
:101B10000F931F93CF93DF93EC0162E10E94410D7D
:101B2000182F6CE1CE010E94410D082F4FEF62E1AA
:101B3000CE010E94590B8A819B81049759F4812F11
:101B4000807AE9F4FE01EE5DFE4F8081882311F07A
:101B500006FF15C08A819B81049711F416FD24C0ED
:101B60008A819B81039711F413FDDAC08A819B81DE
:101B7000059791F412FF10C011701E8BB6C08889B2
:101B800099890196998B888B8FB7F894FE01E15E55
:101B9000FE4F10821F8E8FBFDF91CF911F910F914B
:101BA000FF90EF90DF90089563E1CE010E94410D18
:101BB000082F60E1CE010E94410D482F6DE0CE015B
:101BC0000E94590BDFB6F894898D9A8DDC01ED9156
:101BD000FC910088F189E02D0995E881F98104AC38
:101BE000F5ADE02DCE010995898D9A8DDC01ED9141
:101BF000FC910190F081E02D60E009957E01B0E25A
:101C0000EB0EF11C102F115070F0898D9A8DDC01B4
:101C1000ED91FC910190F081E02D60E00995F701D4
:101C200081937F01F0CFE881F98106ACF7ADE02D1B
:101C3000CE010995898D9A8DDC01ED91FC91028888
:101C4000F389E02D0995DFBE0F8F69E1CE010E9477
:101C5000410D8E010F5D1E4F87FD8D5F859585952A
:101C6000F80180836AE1CE010E94410D90E09F87D8
:101C70008E87D8012C918E859F8527FF40C0820FCB
:101C8000911D27FD9A959F878E87FE01E05EFE4F8E
:101C90008081882309F43FC08E859F858D599109E5
:101CA0009F878E878F8DFE01E15EFE4F8430C8F0E6
:101CB00088A18E8389A18F838AA188878BA1898738
:101CC0008D81811107C09E818C81981719F08E81BA
:101CD0008F3F39F48A899B8901969B8B8A8B81E09F
:101CE00080838081882309F457CFCE01DF91CF9183
:101CF0001F910F91FF90EF90DF900C94F80B24E070
:101D0000880F991F2A95E1F76FE070E00E942F225B
:101D10007F876E87BACF8E859F85845A9109C0CF01
:101D20008C899D8901969D8B8C8BDFCF8091B7022A
:101D30009091B802009711F00C94850D0895809150
:101D4000B5029091B602009711F00C94850D08959C
:101D50008091B3029091B402009711F00C94850D1C
:101D60000895CF93DF93EC01898D9A8DDC01ED917D
:101D7000FC910680F781E02D09958B8D8F3F19F03E
:101D800061E00E940803E881F98106ACF7ADE02D1F
:101D9000CE01099564E670E080E090E00E945E0369
:101DA00081E0DF91CF9108952FB7F89491E06623F9
:101DB00039F092E0613021F082E08093B10290E04E
:101DC0008091B002892B8093B0028091B102811181
:101DD00003C081E08093B1022FBF08958091B102CA
:101DE000882361F09FB7F8942091B1028091AF02EF
:101DF000213019F48DBB9FBF08958FBF0895FC015A
:101E0000308521858091B102882381F09FB7F894B5
:101E10008091B102813069F48DB38093AF024DB3EC
:101E20008091B002809584238DBB9FBF3CBD2DBDAA
:101E300008959093AF02FACF9FB7F8948091AE02C5
:101E4000882319F081508093AE028091AE028111F7
:101E500005C08CB58F7B8CBD1092B1029FBF0895D9
:101E60008CB58F778CBD08958CB580688CBD089536
:101E70006EBD00000DB407FEFDCF8EB50895FC01C8
:101E8000738362830895FC01778366830895FC0160
:101E90007583648308950895FC0184899589089564
:101EA000FC01828993890895FC01808991890895B4
:101EB00080E00895FC01738362830895FC018281B0
:101EC00093810895FC01868597850895FC0181859D
:101ED0000895FC0180850895FC0187810895FC0127
:101EE000868108954095FC0125854223642B6587F2
:101EF0000895FC0164870895FC0163870895FC013F
:101F000062870895FC0164830895FC016583089548
:101F10008F929F92AF92BF92CF92DF92EF92FF92F9
:101F2000CF93DF93EC016B010E9491034B015C01A5
:101F3000F12CE12C0E949103681979098A099B0907
:101F40006C157D058E059F0580F48A819B81039722
:101F500089F381E0DF91CF91FF90EF90DF90CF90F8
:101F6000BF90AF909F908F90089580E0F3CFFC01D9
:101F70002281338123303105D1F381E008958F929E
:101F80009F92AF92BF92CF92DF92EF92FF92CF9348
:101F9000DF93EC016B010E9491034B015C01F12C7A
:101FA000E12C0E949103681979098A099B096C1533
:101FB0007D058E059F05A0F4E881F9810680F781F3
:101FC000E02DCE010995882361F3DF91CF91FF9039
:101FD000EF90DF90CF90BF90AF909F908F9008953B
:101FE00080E0F3CFCF93DF93EC01E881F9810680A5
:101FF000F781E02DCE0109958823B9F3DF91CF91C8
:10200000089581E008950C94F92280913D05811195
:102010000BC08091400590914105009711F00E94FE
:10202000F92281E080933D0580913B0590913C052C
:10203000009731F00E94F92210923C0510923B0566
:102040000895CF92DF92EF92FF921F93CF93DF9389
:10205000CDB7DEB7A8970FB6F894DEBF0FBECDBFE1
:102060006DE181E094E00E94410D182F6EE181E066
:1020700094E00E94410D98E2E8E1F1E0DE01119662
:1020800001900D929A95E1F7682F70E084E07595C4
:1020900067958A95E1F770E090E080E00E94DE1D90
:1020A0009B01AC0160E070E080E090E40E943D2084
:1020B00020E030E04AE754E40E943F1E212F30E048
:1020C00044E0359527954A95E1F7220F331F220FFB
:1020D000331FE1E0F0E0EC0FFD1FE20FF31F208162
:1020E0003181428153810E94971F6B017C0166E21E
:1020F00081E094E00E94410D182F177F20E030E02E
:1021000040E851E4C701B6010E943820412F18165B
:102110000CF4486066E281E094E0A8960FB6F8946B
:10212000DEBF0FBECDBFDF91CF911F91FF90EF902B
:10213000DF90CF900C94590B0E943F24FB0101903B
:102140000020E9F73197AF01461B570BDC01ED91F9
:10215000FC910280F381E02D09948F929F92AF92BF
:10216000BF92EF92FF920F931F93CF93DF93CDB760
:10217000DEB7A1970FB6F894DEBF0FBECDBF7C01CE
:10218000FA01CB0119A2223008F42AE08E010F5D7A
:102190001F4F822E912CB12CA12CBF01A5019401BF
:1021A0000E94661FF901CA016A300CF5605DD80112
:1021B0006E938D01232B242B252B79F790E080E063
:1021C000109721F0BD01C7010E949E10A1960FB685
:1021D000F894DEBF0FBECDBFDF91CF911F910F915D
:1021E000FF90EF90BF90AF909F908F900895695CA3
:1021F000DECF8F929F92AF92BF92CF92DF92EF92FB
:10220000FF920F931F93CF93DF937C018B016C019F
:1022100082E0C80ED11C4701E5E08E0E911CD0E093
:10222000C0E0F60141916F0150E070E060E02AE00B
:10223000C8010E94AD105C016EE2C8010E947901E4
:102240008A0D9B1DC80FD91FC814D90451F7F70177
:10225000458150E070E060E02AE0C8010E94AD10C6
:102260008C0F9D1FDF91CF911F910F91FF90EF90E9
:10227000DF90CF90BF90AF909F908F9008950F9375
:102280001F93CF93DF93EC010E949E108C016DE0B1
:1022900072E0CE010E949E10800F911FDF91CF91BE
:1022A0001F910F910895AF92BF92CF92DF92EF925C
:1022B000FF920F931F93CF93DF9300D000D000D0F5
:1022C0001F92CDB7DEB75C019B0183E489835A83FB
:1022D0004B83FB0101900020E9F731978F01061B2A
:1022E000170BCC24C394D12CCE0106967C0143E07D
:1022F00050E0BE016F5F7F4FD5011C968D919C9180
:102300000E941406892BB9F18E81F501868793E628
:102310009C838D8301E010E09E01295F3F4F42E0E6
:1023200050E0BE016C5F7F4FD5011C968D919C9152
:102330000E9425088F81882339F061E070E080E0F9
:1023400090E00E945E03E6CF81E0F501878701906F
:10235000F081E02D0688F789E02DC50109958111EE
:102360001DC0D501ED91FC910488F589E02DC501D2
:102370000995F501168690E080E027960FB6F8944F
:10238000DEBF0FBECDBFDF91CF911F910F91FF90A8
:10239000EF90DF90CF90BF90AF90089581E090E0F4
:1023A000ECCF0F931F93CF93DF93EC01888199813A
:1023B000009759F02A813B812617370730F081E0DA
:1023C000DF91CF911F910F9108958B016F5F7F4F28
:1023D0000E948223009759F0998388831B830A8384
:1023E0002C813D81232B59F7FC011082E8CF80E03E
:1023F000E7CFCF92DF92EF92FF920F931F93CF938D
:10240000DF9300D000D0CDB7DEB77C01862F4AE045
:102410009E012F5F3F4F6901B90190E00E94A91D05
:10242000F60101900020E9F73197EC19FD09D9F088
:10243000D70114960D911C910E0F1F1FB801C701F3
:102440000E94D111882381F0F7012081318184819C
:102450009581B601820F931F0E945F24D7011596C4
:102460001C930E93149781E00F900F900F900F9094
:10247000DF91CF911F910F91FF90EF90DF90CF9060
:102480000895EF92FF920F931F93CF93DF9300D0A5
:10249000CDB7DEB78C018EE289831A82F801E48021
:1024A000F580FFEFEF1AFF0AB701C8010E94D111B2
:1024B000882381F0F8012081318184819581BE01DA
:1024C0006F5F7F4F820F931F0E945F24F801F58298
:1024D000E48281E00F900F90DF91CF911F910F91D7
:1024E000FF90EF900895EF92FF920F931F93CF9379
:1024F000DF93EC017B01198218821B821A821D82F4
:102500001C82FB0101900020E9F731978F01061B27
:10251000170BB8010E94D11128813981811113C094
:102520002115310519F0C9010E94F922198218827A
:102530001D821C821B821A82DF91CF911F910F9105
:10254000FF90EF9008951D830C83B701C901DF91BF
:10255000CF911F910F91FF90EF900C945F24CF9239
:10256000DF92EF92FF920F931F93CF93DF9300D0F0
:1025700000D000D0CDB7DEB77C018B016A016FE0DF
:1025800072E0CE0101960E94731262E170E0CE010A
:1025900001960E94D111D80112966C91CE0101963C
:1025A0000E94F911CE0101960E944112F801638147
:1025B000CE0101960E94F911CE0101960E944112AE
:1025C000D80114966C91CE0101960E94F911CE01AA
:1025D00001960E944112F8016581CE0101960E9488
:1025E000F91169817A81D701ED91FC910088F18917
:1025F000E02DA601C70109958C0189819A81009778
:1026000011F00E94F922C80126960FB6F894DEBF99
:102610000FBECDBFDF91CF911F910F91FF90EF9033
:10262000DF90CF900895CF92DF92EF92FF920F93B9
:102630001F93CF93DF93EC017B018A01E881F9813D
:102640000680F781E02D0995D82E882329F1E11421
:10265000F104D1F001151105B9F0CFB6F8948F8DC2
:102660008350990BF8012081281719061CF08F8DD3
:1026700084508083F801408150E0BE016C5D7F4F43
:10268000C7010E944424CFBE8FB7F894FE01E15EDB
:10269000FE4F10821F8E8FBF8D2DDF91CF911F9126
:1026A0000F91FF90EF90DF90CF900895EF92FF92FF
:1026B0000F931F93CF93DF9300D01F92CDB7DEB758
:1026C0008C010E94B10EE82E81110CC0E12C8E2DE0
:1026D0000F900F900F90DF91CF911F910F91FF906E
:1026E000EF900895D8015D968C918F3F09F493C0C7
:1026F000823009F48EC0FF24F394833039F7F80157
:10270000818D928DDC01ED91FC910488F589E02D9D
:102710006F2D099540E861E0C8010E94590B6AE0FD
:1027200070E080E090E00E945E0361E0C8010E94DA
:10273000410D803859F6F801858D8F3F71F160E0C9
:102740000E940803D8015E968C915E978F3F59F4E2
:102750008091B202843008F0B9CF91E0980F909345
:10276000B2025E968C93F801868DE82FF0E0EE0FB2
:10277000FF1FED54FD4F1183008368EA7EE088233C
:1027800049F06FE97EE0813029F0823009F09ECF78
:1027900066E97EE08F2D0E94050140E06EE0C801F1
:1027A0000E94590B40E06FE0C8010E94590BC8011C
:1027B0000E94F80B43E050E064EF70E0CE01019618
:1027C0000E94951D49816DE1C8010E94590B4A8103
:1027D0006EE1C8010E94590B4B8166E2C8010E945C
:1027E000590B40E060E2C8010E94590B48E061E2E9
:1027F000C8010E94590B40E050E069ED73E4C80144
:102800000E94180CD8015C961C92C8010E94A10B72
:102810005ECFF12C74CFFF24FA947CCF0F931F93DB
:10282000CF93FC018281938140E054E264EF70E039
:1028300084309105C1F040E052E16AE770E08330F6
:10284000910589F040E059E06DE370E08230910538
:1028500051F040E452E46FE070E0019721F440E869
:1028600054E86EE170E0A481B5818681978100977C
:1028700009F466C08130910509F45EC0823091058B
:1028800009F45CC0039709F05BC08CE000E012E142
:102890002AE730E090E0401751076207730740F4E1
:1028A00036952795179507959F5F9630A1F797E086
:1028B00021E0292730E5119709F430E72695282BE8
:1028C000232B2087909591709187CFB7F8948091B2
:1028D000AE02811127C0E1E3F1E08491E5E4F1E08B
:1028E0009491E82FF0E0EE0FFF1FED5EFE4FA591F3
:1028F000B491EC91E92321F461E08AE00E94DA02CC
:1029000061E08AE00E9408038CB580618CBD8CB5C3
:1029100080648CBD61E08DE00E94080361E08BE083
:102920000E9408038091AE028F5F8093AE02CFBFFA
:10293000CF911F910F91089584E0A8CF88E0A6CF92
:1029400080E0A4CF8F929F92AF92BF92CF92DF92FE
:10295000EF92FF92CF93DF93FC012789308D232BD9
:10296000B9F1EC010E9491034B015C0189E0C82E92
:10297000D12CE12CF12CE881F981008CF18DE02D36
:10298000CE010995882321F10E949103AB01BC017E
:10299000481959096A097B098F89988DB0E0A0E030
:1029A00084179507A607B707F8F00E943D1DA701F9
:1029B00096010E94FD1E9B01AC012F5F3F4F4F4FC0
:1029C0005F4FA4E6B0E00E941C1F0E945E03D3CFBD
:1029D00081E0DF91CF91FF90EF90DF90CF90BF909B
:1029E000AF909F908F90089580E0F3CF1F920F9249
:1029F0000FB60F9211242F933F934F935F936F93D2
:102A00007F938F939F93AF93BF93EF93FF9388EC44
:102A100092E00E942202FF91EF91BF91AF919F91AE
:102A20008F917F916F915F914F913F912F910F9077
:102A30000FBE0F901F9018951F920F920FB60F9216
:102A400011242F938F939F93EF93FF93E091D802DC
:102A5000F091D9028081E091DE02F091DF0282FDE7
:102A60001BC090818091E1028F5F8F732091E20201
:102A7000821741F0E091E102F0E0E853FD4F958FBD
:102A80008093E102FF91EF919F918F912F910F9091
:102A90000FBE0F901F9018958081F4CF1F920F9258
:102AA0000FB60F9211242F933F938F939F93AF9361
:102AB000BF938091BA029091BB02A091BC02B091E9
:102AC000BD023091B90223E0230F2D3758F501964E
:102AD000A11DB11D2093B9028093BA029093BB024D
:102AE000A093BC02B093BD028091BE029091BF0240
:102AF000A091C002B091C1020196A11DB11D8093A9
:102B0000BE029093BF02A093C002B093C102BF91D6
:102B1000AF919F918F913F912F910F900FBE0F908A
:102B20001F90189526E8230F0296A11DB11DD2CF44
:102B30001F920F920FB60F9211242F933F934F9332
:102B40005F936F937F938F939F93AF93BF93EF9315
:102B5000FF93E0910201F09103010995FF91EF913C
:102B6000BF91AF919F918F917F916F915F914F91A5
:102B70003F912F910F900FBE0F901F9018951F92AD
:102B80000F920FB60F9211242F933F934F935F93A1
:102B90006F937F938F939F93AF93BF93EF93FF9325
:102BA000E0910001F09101010995FF91EF91BF9132
:102BB000AF919F918F917F916F915F914F913F91D5
:102BC0002F910F900FBE0F901F9018951F920F928C
:102BD0000FB60F9211242F933F934F935F936F93F0
:102BE0007F938F939F93AF93BF93CF93DF93EF9395
:102BF000FF938091020090910300049709F0DEC0DA
:102C000020911B0030E0F901E15BFE4F8491F90156
:102C1000E55CFE4FD491F901E95DFE4FC491CC23F0
:102C200079F081110E94B102EC2FF0E0EE0FFF1F4E
:102C3000E651FF4FA591B491EC91ED2381E009F4A9
:102C400080E0817020911E00982F9227821719F042
:102C500083B18F5F83B982B18917F1F184B12DE11E
:102C6000803508F42BE084B1820F84B992B984B125
:102C7000803A08F46EC086B197B19695879597B95A
:102C800086B983B1853028F086B197B1986097B93D
:102C900086B984B1805A84B913B885B1882309F400
:102CA00082C088B18F5F88B98C3008F452C086B179
:102CB00097B1982F9F73892F86958695887028E005
:102CC000280F281769F0E82FF0E0E95BFE4F30810C
:102CD000931739F08F5FF5CF84B18C5E84B9C7CF7D
:102CE00080E090E1899F9001112486B197B136E090
:102CF000969587953A95E1F7482F959587959595FF
:102D00008795887098E0980F981749F0E82FF0E0C1
:102D1000E95BFE4F5081451719F08F5FF5CF80E0DA
:102D2000822B90916D00911127C080936C0090913F
:102D30006C00973020F090916C009434E8F015B856
:102D40008091100090911100019690931100809352
:102D50001000FF91EF91DF91CF91BF91AF919F91C3
:102D60008F917F916F915F914F913F912F910F9034
:102D70000FBE0F901F901895E0916D0091E09E0F8F
:102D800090936D00F0E081A790916D0080916C00B0
:102D9000981738F015B881E080B990E080E00E9483
:102DA000370B18B8D6CF86B197B188339B4089F6D8
:102DB00081E085B918B810926D00CBCF80910200E8
:102DC00090910300039729F68091700091E0980F8D
:102DD00090937000811113C0E0916E008091FF000C
:102DE000E817A8F090E080E00E94370B8091140073
:102DF0009091150001969093150080931400809196
:102E00007000883008F4A5CF10927000A2CFF0E0D7
:102E1000EF58FF4F608170E080916F0091E0980F54
:102E200090936F0002C0759567958A95E2F761707F
:102E300080911C000E94DA0280916F008630F8F2C7
:102E400010926F0080916E008F5F80936E00D7CFDD
:102E50008091250590912605009711F00E94F92296
:102E60008091DE039091DF030E94F9228FEF91E0C1
:102E700090932C0580932B050C940510FF920F93D3
:102E80001F93CF93DF93E8ECF2E01382128248EEB7
:102E900053E060E070E044835583668377838BE57D
:102EA00091E09183808385EC90E09587848784EC22
:102EB00090E09787868780EC90E0918B808B81EC07
:102EC00090E0938B828B82EC90E0958B848B86ECE8
:102ED00090E0978B868B118E128E138E148EABE240
:102EE000B5E013961C921E92129714964D935D9323
:102EF0006D937C9317978FEF91E011969C938E932F
:102F0000C5E7D3E01D96DC93CE931C971E961C92CA
:102F10001E971F961C921F9751961C921E925097B7
:102F2000FF24F3945296FC92A2ECB2E089EF91E078
:102F300011969C938E9312961C92129713961C9244
:102F4000139714961C92149715961C921882FE8360
:102F5000ED831F821886FA87E987E5E6F3E091831F
:102F6000808312821382148215820BE613E0F8012B
:102F70001382128215821482178216822DE631E0A6
:102F80003183208320E520871186E0E8F3E09183F8
:102F900080831282138214821582E6E8F3E01382A2
:102FA0001282448355836683778329ED31E0318330
:102FB0002083D587C48716861786108AC8EDD3E08C
:102FC0001B821A822DEC31E0398328839C8F8B8FF2
:102FD0001D8E1E8E1F8E18A28FEF9FEF98A78FA3B6
:102FE000FD83EC831EA21DA280E091E00E945D2281
:102FF0009F838E8380E091E0998788878FE090E0BF
:103000009B878A879D878C87E1E0F4E01382128298
:103010008FEF84838287838714861586118A108AAE
:10302000138A128A158A148A108E178A128F018FBA
:103030009AE0938F27E831E03183208310922005B6
:103040001092240592E0958F868FF0922305148EBE
:1030500060E172E085E295E0DF91CF911F910F91E1
:10306000FF900C947312CF93DF93CDB7DEB7C550AA
:10307000D1400FB6F894DEBF0FBECDBF789484B5B3
:10308000826084BD84B5816084BD85B5826085BD64
:1030900085B5816085BD80916E00816080936E00F2
:1030A00010928100809181008260809381008091E4
:1030B0008100816080938100809180008160809395
:1030C00080008091B10084608093B1008091B00055
:1030D00081608093B00080917A00846080937A0050
:1030E00080917A00826080937A0080917A0081607A
:1030F00080937A0080917A00806880937A001092A1
:10310000C10061E080E10E94080380917E039091FC
:103110007F030E94DE0085E793E00E941A0A8091F7
:103120003705909138050E941A0A0E94051080E226
:1031300090E00E945D2290933C0580933B0571E6F0
:10314000D72ECE0101967C01D98201E010E09701D3
:1031500041E050E0B70180913705909138050E9419
:1031600025088981813081F763E272E08BE295E086
:103170000E943F116AE070E080E090E00E945E03F0
:1031800080917E0390917F030E94DE0085E793E0AB
:103190000E941A0A0E943903611571058105910583
:1031A00011F00E948C1D8091250590912605909329
:1031B000FA038093F9038BE597E09093FC038093E7
:1031C000FB0381E094E00E945613811106C060E386
:1031D00072E08BE295E00E943F1140E050E069E52B
:1031E00074E481E094E00E94180C10921D0481E0C8
:1031F00094E00E94A10B6EE181E094E00E94410DF9
:103200008F70482F40676EE181E094E00E94590B77
:103210000E9421106DE181E094E00E94410D8F70C9
:10322000482F40676DE181E094E00E94590B0E94B5
:1032300021106DE181E094E00E94410D817F482FD3
:1032400042606DE181E094E00E94590B6CE372E012
:103250008BE295E00E949E102AE044E653E060E095
:1032600070E08BE295E00E94AD106EE28BE295E09B
:103270000E9479012AE040E050E0BA018BE295E03B
:103280000E94AD102AE040E050E0BA018BE295E0E8
:103290000E94AD106DE072E08BE295E00E949E10FE
:1032A00081E094E00E94120D882309F413C28BEF91
:1032B000CC5FDE4F8883C450D140AE014C5F5E4F7F
:1032C000B70181E094E00E941313882309F460C2DF
:1032D00049EF442E41E0542E66246394712C8824D7
:1032E0008394912C32E0332E0E944101811168C1F8
:1032F00065E572E088EC92E00E943F110E94410176
:10330000811106C18091DC039091DD03DC01ED9118
:10331000FC910688F789E02D0995882309F445C0BA
:103320009092E7038092E60387E0E0E4F1E0DE01BB
:10333000A450BF4F01900D928A95E1F7DE01A45091
:10334000BF4F85E090E02D91E091DE03F091DF0327
:10335000E80FF91F208301968C309105A1F70091A9
:10336000DE031091DF03F80134868091E303858743
:103370008091E2038687C090E003D090E103B6011C
:1033800088E692E00E949E1D4196C816D90608F074
:1033900049C08091DC039091DD03DC01ED91FC914B
:1033A0000488F589E02D09959FCF6091F90370910C
:1033B000FA038091DC039091DD03DC01ED91FC9137
:1033C0004091FB035091FC036115710571F0008879
:1033D000F189E02D0995019709F4A2CFEEEFFFEFF7
:1033E000F0930004E093FF037FCF0684F785E02D80
:1033F000C450DF4F59824882CC5FD0400091F50322
:103400001091F6032091F7033091F803C250DF4F7B
:10341000088319832A833B83CE5FD040BE0164506A
:103420007F4FD8CF4FE050E0B80188E692E00E948D
:103430001F01AC01455051096091DE037091DF031B
:1034400080E10E949D030E9491036093E8037093C2
:10345000E9038093EA039093EB036093EC0370938A
:10346000ED038093EE039093EF038091DC03909142
:10347000DD03DC01ED91FC910084F185E02D0995DF
:10348000892B21F50E9491030091EC031091ED032B
:103490002091EE033091EF035B016C01A01AB10A99
:1034A000C20AD30A2091E4033091E503A8EEB3E009
:1034B0000E94881FA616B706C806D906B0F2ECEF20
:1034C000FFEFF0930004E093FF0363CFCE018D5F25
:1034D0009E4F0E944B04643071058105910509F0EF
:1034E00058CFE091DE03F091DF03838181115DC04D
:1034F0000E9491036093EC037093ED038093EE03BD
:103500009093EF031092F003109200041092FF03C7
:1035100066E772E088EC92E00E943F110091E003C0
:103520001091E103B80185E892E00E949E1D099682
:103530000817190708F4D6CE0E944101882309F420
:10354000D1CE8091E6039091E7030196A1F190938B
:10355000E7038093E603E091DE03F091DF038091BF
:10356000E7038583E091DE03F091DF038091E603BA
:1035700086836091DE037091DF0347E050E085E8C9
:1035800092E00E941F01E091DE03F091DF03E80F5B
:10359000F91F1082AC01445051096091DE03709113
:1035A000DF0382E80E949D039DCE90E0909300048B
:1035B0008093FF03EECE7092E7036092E603CBCFD9
:1035C00061E080E10E94DA02CC5FDE4F0881C450E6
:1035D000D14067E972E088EC92E00E943F116701F8
:1035E00010E0011709F1D6014D916D0150E070E036
:1035F00060E0812F8F7020E18F3061F488EC92E0E1
:103600000E94AD106DE072E088EC92E00E949E1086
:103610001F5FE7CF88EC92E00E94AD1060E288EC7B
:1036200092E00E947901F4CF6FE072E088EC92E0C2
:103630000E943F1163E972E08BE295E00E949E10C8
:10364000B7018BE295E00E943F116091E003709119
:10365000E103C7010E949E1D8C010E944101882345
:10366000C9F1C090E003D090E103B60185E892E093
:103670000E949E1D9801295F3F4F820F931FC8161D
:10368000D90640F16091DE037091DF0345E050E020
:1036900085E892E00E941F01F701AC014E195F0915
:1036A000DA01AE0FBF1F6091DE037091DF039F014F
:1036B0002E193F092017310728F42191A60FB71FB3
:1036C0002C93EECF05501109A801480F591F80E334
:1036D0000E949D030E944101882309F44CC00E946E
:1036E00091034B015C012091E2033091E303A8EECA
:1036F000B3E00E94881F0091EC031091ED0320912C
:10370000EE033091EF0324013501401A510A620A99
:10371000730A930182016017710782079307B0F063
:103720000091E8031091E9032091EA033091EB0343
:1037300024013501401A510A620A730A9301820179
:10374000601771078207930708F058C08091F00353
:10375000882329F18CEF9FEF909300048093FF035F
:103760008091DC039091DD03DC01ED91FC910488F4
:10377000F589E02D099580E090E0892B09F490CD42
:103780000E940E02882309F48BCD0E94000088CD90
:1037900061EA72E08BE295E00E943F119BCFE091DD
:1037A000DE03F091DF0380EC8083E091DE03F09193
:1037B000DF0311828091DC039091DD036091DE03D1
:1037C0007091DF03DC01ED91FC910280F381E02D2B
:1037D00042E050E009958092E8039092E903A092BC
:1037E000EA03B092EB038092EC039092ED03A09277
:1037F000EE03B092EF0381E08093F0038091DC034D
:103800009091DD03DC01ED91FC910084F185E02DC8
:103810000995892B09F4AFCFC7010E944B042B01F6
:10382000672B09F4DBC08092EC039092ED03A09229
:10383000EE03B092EF03E091DE03F091DF038081AD
:10384000807F803309F0A9C08091F1039091F20349
:10385000892B09F490CF498150E0CA0102968E0F5E
:103860009F1FDF01A40FB51F11960C9110E0102FC0
:103870000027DC016C91060F111D4D5F5F4FBF01EA
:10388000640F751FA8010E944D24E9818091DE0319
:103890009091DF03800F911FE80FF92FF11D128225
:1038A000E091DE03F091DF03298130E0C901029647
:1038B0008E0F9F1F40814670CB5FDE4F4883C550FF
:1038C000D140C090F103D090F203423009F053C0D0
:1038D000B801620F731FDF01A60FB71F13964C913B
:1038E000139750E0542F442714962C90240E352E15
:1038F000311C4BEF5FEF421B530B401B510B440D30
:10390000551D6B5F7F4F6E0F7F1FF6010995E0918C
:10391000DE03F091DF0380E48083E091DE03F09129
:10392000DF03CB5FDE4F4880C550D1404182E0913C
:10393000DE03F091DF033282E091DE03F091DF03DA
:1039400023828091DC039091DD036091DE0370910E
:10395000DF03DC01ED91FC910280F381E02D44E076
:1039600050E009958092E8039092E903A092EA035F
:10397000B092EB0300CF4DEF5FEF421B530B401BA8
:10398000510B440D551D2D5F3F4F020F131FBF01FB
:10399000600F711FF6010995EECE803CC9F480EDF1
:1039A0008083E091DE03F091DF0311828091DC03DC
:1039B0009091DD036091DE037091DF03DC01ED91F6
:1039C000FC910280F381E02D42E050E00995D3CED6
:1039D000803D09F0D0CE1092F003CDCE0E9441017F
:1039E000CACE8F929F92AF92BF92CF92DF92EF9208
:1039F000FF92CF93DF93EC01688179818A819B816B
:103A0000611571058105910521F464E279ED8BE57D
:103A100097E02DE133EF41E050E00E94FD1E4901A7
:103A20005A019B01AC01A7EAB1E40E941C1F6B0183
:103A30007C01ACEEB4EFA50194010E942A1FC60ED2
:103A4000D71EE81EF91EF7FE06C081E0C81AD1088D
:103A5000E10880E8F80AC882D982EA82FB82C701BD
:103A6000B6019F77DF91CF91FF90EF90DF90CF90DD
:103A7000BF90AF909F908F9008958F929F92AF923A
:103A8000BF92CF92DF92EF92FF926091040170910A
:103A9000050180910601909107016115710581056D
:103AA000910521F464E279ED8BE597E02DE133EFA8
:103AB00041E050E00E94FD1E49015A019B01AC010A
:103AC000A7EAB1E40E941C1F6B017C01ACEEB4EFCD
:103AD000A50194010E942A1FC60ED71EE81EF91EDA
:103AE000F7FE06C081E0C81AD108E10880E8F80AAC
:103AF000C0920401D0920501E0920601F092070104
:103B0000C701B6019F77FF90EF90DF90CF90BF90F5
:103B1000AF909F908F90089560930401709305017A
:103B200080930601909307010895FB01DC0102C018
:103B300005900D9241505040D8F70895FC01615016
:103B4000704001900110D8F7809590958E0F9F1FBF
:103B50000895BB274A3031F4992322F4BDE29095B1
:103B600081959F4F0C94B51DBB27FB015527AA27B4
:103B7000880F991FAA1FA41710F0A41B83955051FA
:103B8000B9F7A05DAA3308F0A95DA193009779F772
:103B9000B111B1931192CB010C94CE1DDC01FC014B
:103BA000672F71917723E1F7329704C07C916D9371
:103BB00070836291AE17BF07C8F30895E89409C0F7
:103BC00097FB3EF490958095709561957F4F8F4F50
:103BD0009F4F9923A9F0F92F96E9BB279395F69566
:103BE000879577956795B795F111F8CFFAF4BB0FE4
:103BF00011F460FF1BC06F5F7F4F8F4F9F4F16C048
:103C0000882311F096E911C0772321F09EE8872FD1
:103C1000762F05C0662371F096E8862F70E060E08D
:103C20002AF09A95660F771F881FDAF7880F969506
:103C3000879597F90895990F0008550FAA0BE0E8AA
:103C4000FEEF16161706E807F907C0F0121613065E
:103C5000E407F50798F0621B730B840B950B39F49E
:103C60000A2661F0232B242B252B21F408950A2604
:103C700009F4A140A6958FEF811D811D08950E9432
:103C8000521E0C94C31E0E94B51E38F00E94BC1E2A
:103C900020F0952311F00C94AC1E0C94B21E11244C
:103CA0000C94F71E0E94D41E70F3959FC1F3950FDC
:103CB00050E0551F629FF001729FBB27F00DB11DB0
:103CC000639FAA27F00DB11DAA1F649F6627B00D40
:103CD000A11D661F829F2227B00DA11D621F739F29
:103CE000B00DA11D621F839FA00D611D221F749F37
:103CF0003327A00D611D231F849F600D211D822F7E
:103D0000762F6A2F11249F5750409AF0F1F08823A4
:103D10004AF0EE0FFF1FBB1F661F771F881F9150D1
:103D20005040A9F79E3F510580F00C94AC1E0C94B6
:103D3000F71E5F3FE4F3983ED4F386957795679539
:103D4000B795F795E7959F5FC1F7FE2B880F911DFB
:103D50009695879597F9089597F99F6780E870E0A1
:103D600060E008959FEF80EC089500240A941616F1
:103D7000170618060906089500240A941216130659
:103D8000140605060895092E0394000C11F48823E7
:103D900052F0BB0F40F4BF2B11F460FF04C06F5F03
:103DA0007F4F8F4F9F4F089557FD9058440F551FD9
:103DB00059F05F3F71F04795880F97FB991F61F0AD
:103DC0009F3F79F087950895121613061406551F24
:103DD000F2CF4695F1DF08C0161617061806991F90
:103DE000F1CF86957105610508940895E894BB2785
:103DF00066277727CB0197F90895052E97FB1EF4C8
:103E000000940E94141F57FD07D00E94661F07FCF4
:103E100003D04EF40C94141F509540953095219585
:103E20003F4F4F4F5F4F08959095809570956195E6
:103E30007F4F8F4F9F4F08950E94881FA59F900D21
:103E4000B49F900DA49F800D911D11240895B7FF7C
:103E50000C941C1F0E941C1F821B930B08952F9211
:103E60003F924F925F926F927F928F929F92AF920A
:103E7000BF92CF92DF92EF92FF920F931F93CF9357
:103E8000DF93CDB7DEB7CA1BDB0B0FB6F894DEBFEE
:103E90000FBECDBF09942A88398848885F846E8414
:103EA0007D848C849B84AA84B984C884DF80EE805E
:103EB000FD800C811B81AA81B981CE0FD11D0FB667
:103EC000F894DEBF0FBECDBFED010895A1E21A2E1A
:103ED000AA1BBB1BFD010DC0AA1FBB1FEE1FFF1FAE
:103EE000A217B307E407F50720F0A21BB30BE40BFE
:103EF000F50B661F771F881F991F1A9469F7609545
:103F00007095809590959B01AC01BD01CF010895FE
:103F1000A29FB001B39FC001A39F700D811D11240A
:103F2000911DB29F700D811D1124911D08950E9455
:103F3000AB1F0C94C31E0E94BC1E58F00E94B51EFD
:103F400040F029F45F3F29F00C94AC1E51110C9401
:103F5000F71E0C94B21E0E94D41E68F39923B1F38D
:103F6000552391F3951B550BBB27AA27621773079F
:103F7000840738F09F5F5F4F220F331F441FAA1F33
:103F8000A9F335D00E2E3AF0E0E832D091505040EF
:103F9000E695001CCAF72BD0FE2F29D0660F771F9D
:103FA000881FBB1F261737074807AB07B0E809F083
:103FB000BB0B802DBF01FF2793585F4F3AF09E3F08
:103FC000510578F00C94AC1E0C94F71E5F3FE4F39F
:103FD000983ED4F3869577956795B795F7959F5F4B
:103FE000C9F7880F911D9695879597F90895E1E097
:103FF000660F771F881FBB1F621773078407BA07F6
:1040000020F0621B730B840BBA0BEE1F88F7E09550
:1040100008950E94DC1E88F09F5798F0B92F9927C9
:10402000B751B0F0E1F0660F771F881F991F1AF0A3
:10403000BA95C9F714C0B13091F00E94F61EB1E0F4
:1040400008950C94F61E672F782F8827B85F39F0F3
:10405000B93FCCF3869577956795B395D9F73EF43C
:1040600090958095709561957F4F8F4F9F4F0895E4
:104070000E941B1E08F48FEF0895FA01EE0FFF1F38
:10408000309621053105A1F16115710561F4803883
:10409000BFE39B0749F168949038810561F080384F
:1040A000BFEF9B0741F099234AF5FF3FE10531053A
:1040B000210519F1E8940894E795D901AA2329F478
:1040C000AB2FBE2FF85FD0F310C0FF5F70F4A69542
:1040D000E0F7F73950F019F0FF3A38F49F779F93E3
:1040E0000DD00F9007FC9058089546F00C94B21E26
:1040F00060E070E080E89FE308954FE79F775F936B
:104100004F933F932F930E9438212F913F914F91CE
:104110005F910E943F1E0C94952029F416F00C9498
:10412000AC1E0C94F61E0C94B21E0E94DC1EA8F36A
:104130009638A0F707F80F92E8942BE33AEA48EB99
:104140005FE70E94551E0F920F920F924DB75EB718
:104150000F920E948021E8E6F0E00E94C7204F9174
:104160005F91EF91FF91E595EE1FFF1F49F0FE571C
:10417000E0684427EE0F441FFA95E1F74195550B8F
:104180000E94FA200F9007FE0C94EE200895DF9312
:10419000CF931F930F93FF92EF92DF927B018C01DD
:1041A000689406C0DA2EEF010E94521EFE01E894C8
:1041B000A5912591359145915591A6F3EF010E9466
:1041C000CC21FE019701A801DA9469F7DF90EF9006
:1041D000FF900F911F91CF91DF9108959B01AC014A
:1041E00060E070E080E89FE30C94971F0C94AC1E95
:1041F0000C9421220E94DC1ED8F39923C9F3940F5A
:10420000511DA3F39150504094F059F0882332F09F
:10421000660F771F881F91505040C1F79E3F510590
:104220002CF7880F911D9695879597F908955F3F14
:10423000ACF0983E9CF0BB27869577956795B7952F
:1042400008F4B1609395C1F7BB0F58F711F460FF04
:10425000E8CF6F5F7F4F8F4F9F4FE3CF0C94F71ED8
:1042600016F00C9421220C94B21E68940C94AC1E8F
:104270000E94DC1EA8F39923C1F3AEF3DF93CF9322
:104280001F930F93FF92C92FDD2788232AF02197D0
:10429000660F771F881FDAF720E030E040E85FEB19
:1042A0009FE3883920F0803E38F021968F770E9476
:1042B000B521E0E9F0E004C00E94B521EDEBF0E0AB
:1042C0000E94C7208B01BE01EC01FB2E6F577109C4
:1042D0007595771F880B990B0E94E01D28E132E746
:1042E00041E35FE30E94521EAF2D9801AE01FF90A3
:1042F0000F911F91CF91DF910E94CC210C94C31E8E
:10430000FA01DC01AA0FBB1F9B01AC01BF5728F4C7
:10431000222733274427507820C0B75190F4AB2F81
:104320000024469537952795011CA395D2F30020CC
:1043300071F0220F331F441FB395DAF30ED00C94A3
:10434000B42161307105A0E88A07B94630F49B01B9
:10435000AC016627772788279078309621F0208354
:1043600031834283538308955058BB27AA270E9464
:10437000CC210C94C31E0E94B51E38F00E94BC1EB6
:1043800020F039F49F3F19F426F40C94B21E0EF479
:10439000E095E7FB0C94AC1EE92F0E94D41E58F365
:1043A000BA17620773078407950720F079F4A6F51A
:1043B0000C94F61E0EF4E0950B2EBA2FA02D0B01D7
:1043C000B90190010C01CA01A0011124FF27591B5A
:1043D00099F0593F50F4503E68F11A16F040A22F60
:1043E000232F342F4427585FF3CF469537952795D1
:1043F000A795F0405395C9F77EF41F16BA0B620BD0
:10440000730B840BBAF09150A1F0FF0FBB1F661F16
:10441000771F881FC2F70EC0BA0F621F731F841F59
:1044200048F4879577956795B795F7959E3F08F07F
:10443000B0CF9395880F08F09927EE0F9795879541
:1044400008959F3F31F0915020F4879577956795B7
:10445000B795880F911D9695879597F9089597FBC5
:10446000072E16F4009407D077FD09D00E9443224E
:1044700007FC05D03EF4909581959F4F0895709567
:1044800061957F4F0895AA1BBB1B51E107C0AA1F6E
:10449000BB1FA617B70710F0A61BB70B881F991FE5
:1044A0005A95A9F780959095BC01CD010895EE0F1E
:1044B000FF1F0590F491E02D09940F931F93CF9364
:1044C000DF938230910510F482E090E0E0914405A2
:1044D000F091450530E020E0B0E0A0E0309799F49D
:1044E0002115310509F44AC0281B390B2430310548
:1044F000D8F58A819B816115710589F1FB01938350
:104500008283FE0111C040815181028113814817CD
:104510005907E0F04817590799F4109761F012967F
:104520000C93129713961C933296CF01DF91CF9183
:104530001F910F9108950093440510934505F4CF02
:104540002115310551F04217530738F0A901DB015D
:104550009A01BD01DF01F801C1CFEF01F9CF9093BE
:10456000450580934405CDCFFE01E20FF31F8193F3
:1045700091932250310939832883D7CF2091420566
:1045800030914305232B41F420910A0130910B0116
:104590003093430520934205209108013091090191
:1045A0002115310541F42DB73EB740910C015091D2
:1045B0000D01241B350BE0914205F0914305E217F4
:1045C000F307A0F42E1B3F0B2817390778F0AC0136
:1045D0004E5F5F4F2417350748F04E0F5F1F509313
:1045E000430540934205819391939FCFF0E0E0E033
:1045F0009CCFCF93DF930097E9F0FC0132971382B1
:104600001282A0914405B0914505ED0130E020E013
:104610001097A1F420813181820F931F20914205D0
:10462000309143052817390709F061C0F09343051D
:10463000E0934205DF91CF910895EA01CE17DF079D
:10464000E8F54A815B819E0141155105B1F7E90109
:10465000FB83EA8349915991C40FD51FEC17FD07DD
:1046600061F4808191810296840F951FE9019983FD
:104670008883828193819B838A83F0E0E0E01296B5
:104680008D919C9113970097B9F52D913C911197BD
:10469000CD010296820F931F209142053091430570
:1046A0002817390739F6309751F5109245051092C1
:1046B0004405B0934305A0934205BCCFD383C28386
:1046C00040815181840F951FC817D90761F44E5F4F
:1046D0005F4F88819981480F591F518340838A8198
:1046E0009B81938382832115310509F0B0CFF0932C
:1046F0004505E09344059ECFFD01DC01C0CF138248
:104700001282D7CFB0E0A0E0E8E8F3E20C94311FCA
:104710008C01009751F4CB010E945D228C01C801ED
:10472000CDB7DEB7E0E10C944D1FFC01E60FF71F9B
:104730009C0122503109E217F30708F49DC0D9010A
:10474000CD91DC911197C617D70798F0C530D105E8
:1047500030F3CE0104978617970708F3C61BD70BD3
:104760002297C193D1936D937C93CF010E94F9223C
:10477000D6CF5B01AC1ABD0A4C018C0E9D1EA091D8
:104780004405B0914505512C412CF12CE12C10979A
:1047900031F580914205909143058815990509F0FE
:1047A0005CC04616570608F058C0809108019091E9
:1047B0000901009741F48DB79EB740910C015091CB
:1047C0000D01841B950BE817F90708F055C0F0930D
:1047D0004305E0934205F90171836083A0CF8D9179
:1047E0009C91119712966C90129713967C90139748
:1047F000A815B90559F56C0142E0C40ED11CCA14C4
:10480000DB0420F1AC014A195B09DA011296159715
:1048100080F06282738251834083D9016D937C93CF
:10482000E114F10471F0D7011396FC93EE93129703
:1048300076CF22968C0F9D1FF90191838083F3011F
:10484000EFCFF0934505E093440569CF481659062C
:1048500008F42C017D01D3019ACFCB010E945D2287
:104860007C01009749F0AE01B8010E944424C801C0
:104870000E94F922870153CF10E000E050CF81E081
:1048800090E0F8940C946624FB01DC0102C00190D6
:104890000D9241505040D8F708956817790768F491
:1048A000FB01DC01E40FF51FA40FB51F02C002904D
:1048B0000E9241505040D8F708950C944424FB01C7
:1048C000DC0101900D920020E1F7089510E0C3EBA8
:1048D000D0E004C0FE010E9457222196C43BD107BC
:1048E000C9F7F894FFCF9E059E0501000000000067
:1048F000460580005858585858585831303000C034
:10490000F3450080224600C073460080A246002482
:10491000F44600E42247002474470024F4470024AE
:1049200074480024F44800044D515454040D0E13EF
:104930001516191A1C232526292A2C3234000000AA
:10494000004402A401D10191020202E001F401003D
:10495000000000380F340F300F0E141C0F470F43A8
:104960000F3F0FFF0EEE0ED40E00000000320B03BF
:10497000105613120D1313670C330BF20FB70F8879
:104980000FBF0FA214AF0B820F7F0F7C0F790F7236
:104990000F850F6F0F6C0F690F660F620F5E0F5A56
:1049A0000FD70B540F500F4C0F540B4F0B350B0000
:1049B000000000160BF60A2F0B2E0B00000000D48F
:1049C00009EF072F0B9F056B0953090D09AF125310
:1049D000112009F609A008A905A00500000000F9AA
:1049E0001000000000940990072F0B800996087BA7
:1049F0000865080D0A00746573742E6D6F73717508
:104A00006974746F2E6F72670053746172742053EF
:104A10006B6574636800696E6974206661696C65B2
:104A200064004C697374656E696E67206F6E2066F2
:104A300072657175656E63793A2000436F6E6E65BD
:104A40006374696E67204D5154542E2E2E0061728E
:104A50006475696E6F436C69656E7400436F6E6E4A
:104A60006563746564204D5154540065737033322E
:104A70002F74656D7068756D00676F742072657155
:104A8000756573743A200072656376206661696C9F
:044A90006564000059
:107E0000112484B714BE81FFF0D085E080938100F7
:107E100082E08093C00088E18093C10086E0809377
:107E2000C20080E18093C4008EE0C9D0259A86E02C
:107E300020E33CEF91E0309385002093840096BBD3
:107E4000B09BFECF1D9AA8958150A9F7CC24DD24C4
:107E500088248394B5E0AB2EA1E19A2EF3E0BF2EE7
:107E6000A2D0813461F49FD0082FAFD0023811F036
:107E7000013811F484E001C083E08DD089C08234E0
:107E800011F484E103C0853419F485E0A6D080C0E4
:107E9000853579F488D0E82EFF2485D0082F10E0AE
:107EA000102F00270E291F29000F111F8ED06801E7
:107EB0006FC0863521F484E090D080E0DECF843638
:107EC00009F040C070D06FD0082F6DD080E0C81688
:107ED00080E7D80618F4F601B7BEE895C0E0D1E017
:107EE00062D089930C17E1F7F0E0CF16F0E7DF06D8
:107EF00018F0F601B7BEE89568D007B600FCFDCFD4
:107F0000A601A0E0B1E02C9130E011968C91119780
:107F100090E0982F8827822B932B1296FA010C0160
:107F200087BEE89511244E5F5F4FF1E0A038BF0790
:107F300051F7F601A7BEE89507B600FCFDCF97BE46
:107F4000E89526C08437B1F42ED02DD0F82E2BD052
:107F50003CD0F601EF2C8F010F5F1F4F84911BD097
:107F6000EA94F801C1F70894C11CD11CFA94CF0C13
:107F7000D11C0EC0853739F428D08EE10CD085E9AC
:107F80000AD08FE07ACF813511F488E018D01DD067
:107F900080E101D065CF982F8091C00085FFFCCF94
:107FA0009093C60008958091C00087FFFCCF809118
:107FB000C00084FD01C0A8958091C6000895E0E648
:107FC000F0E098E1908380830895EDDF803219F02E
:107FD00088E0F5DFFFCF84E1DECF1F93182FE3DFCA
:107FE0001150E9F7F2DF1F91089580E0E8DFEE27F6
:047FF000FF270994CA
:027FFE00040479
:00000001FF
